:020000040000FA
:100000000C941A0C0C94440C0C94440C0C94011792
:100010000C94440C0C94440C0C94440C0C94440C20
:100020000C94440C0C94440C0C94440C0C94440C10
:100030000C94440C0C94440C0C94440C0C94440C00
:100040000C94440C0C94440C0C94440C0C94440CF0
:100050000C94440C0C94440C0C94440C0C94B71663
:100060000C94440C0C9481160C9457160C94440C6C
:100070000C94440C0C94440C0C94440C0C94440CC0
:100080000C94440C0C94440C0C94440C0C94440CB0
:100090000C94440C0C94440C0C94440C0C94440CA0
:1000A0000C94440C0C94440C0C94440C0C94440C90
:1000B0000C94440C0C94440C0C94440C0C94440C80
:1000C0000C94440C0C94440C0C94440C0C94440C70
:1000D0000C94440C0C94440C0C94440C0C94440C60
:1000E0000C94440C0C94440C0C94440C0C94440C50
:1000F0000C94440C0C94440C0C94440C0C94440C40
:100100000C94440C0C94440C0C94440C0C94440C2F
:100110000C94440C0C94440C0C94440C0C94440C1F
:100120006C00780026001FFF01FC0300011F1F0068
:10013000011F030001E001091E49010001FC01004B
:10014000011F01011F49014801E30100011C0109D0
:10015000015F1EFF014901FF021C01491FFF01E968
:10016000015F01E3011C014B1FFF01FD015F021C48
:10017000014B1FFF01FD015F01E3011C014B1FFF4C
:1001800001FD015F021C014B06FF01F21292011FEB
:1001900005FF01FD015F01E3011C014B01FF0100AF
:1001A0000109015F02FF01F21292011F01FF01FC30
:1001B0000100014901FF01FD015F021C014B01FF2C
:1001C00001000109015F02FF01F21292011F01FF0C
:1001D00001FC0100014901FF01FD015F01E3011C78
:1001E000014B06FF01F21292011F05FF01FD015FA5
:1001F000021C014B06FF01F21292011F05FF01FDD7
:10020000015F01E3011C014B06FF01F21292011F85
:1002100005FF01FD015F021C014B01FF0100010907
:10022000015F02FF01F21292011F01FF01FC0100B8
:10023000014901FF01FD015F01E3011C014B01FFC9
:1002400001000109015F02FF01F21292011F01FF8B
:1002500001FC0100014901FF01FD015F021C014B8E
:1002600006FF01F21292011F05FF01FD015F01E38C
:10027000011C014B06FF01F21292011F05FF01FD57
:10028000015F021C014B06FF01F21292011F05FFE4
:1002900001FD015F01E3011C014B01FF01000109A8
:1002A000015F02FF01F21292011F01FF01FC010038
:1002B000014901FF01FD015F021C014B01FF01002B
:1002C0000109015F02FF01F21292011F01FF01FC0F
:1002D0000100014901FF01FD015F01E3011C014B28
:1002E00006FF01F21292011F05FF01FD015F021CD2
:1002F000014B06FF01F21292011F05FF01FD015F94
:1003000001E3011C014B06FF01F21292011F05FFE0
:1003100001FD015F021C014B01FF01000109015FAA
:1003200002FF01F21292011F01FF01FC01000149CD
:1003300001FF01FD015F01E3011C014B01FF010011
:100340000109015F02FF01F21292011F01FF01FC8E
:100350000100014901FF01FD015F021C014B06FF85
:1003600001F21292011F05FF01FD015F01E3011C73
:10037000014B06FF01F21292011F05FF01FD015F13
:10038000021C014B06FF01F21292011F05FF01FD45
:10039000015F01E3011C014B01FF01000109015F45
:1003A00002FF01F21292011F01FF01FC010001494D
:1003B00001FF01FD015F021C014B01FF010001096A
:1003C000015F02FF01F21292011F01FF01FC010017
:1003D000014901FF01FD015F01E3011C014B06FF23
:1003E00001E01200011F05FF01FD015F021C014B2E
:1003F00006FF01E01200011F05FF01FD015F01E39F
:10040000011C014B1FFF01FD015F021C014B1FFF7F
:1004100001FD015F01E3011C014B1FFF01FD015FB5
:10042000021C014B1FFF01FD015F01E3011C014B99
:100430001FFF01FD015F021C014B1FFF01FD015F5A
:1004400001E3011C01491FFF01E9015F021C014991
:10045000015F1EFF0149015F01E3011C2149015FAA
:10046000021C2149015F01E3011C2149015F021CBB
:100470002149015F01E3011C2149015F021C21495F
:10048000015F01E3011C0149015F1EFF0149015F9A
:10049000021C014901FD1D49014B01E9015F01E316
:1004A000011C014B01E91E4901E9015F021C014BDE
:1004B0001F490141015F01E3011C014B1F4901413B
:1004C000015F021C014B014901000109015D01406E
:1004D0000101014B01480100014901E90100010945
:1004E000015D01400101014B01480100014901E9A1
:1004F00001000109015D01400101014B01480100BA
:10050000014901E90141015F01E3011C014B01497E
:1005100001000109015D01400101014B0148010099
:10052000014901E901000109015D01400101014B9F
:1005300001480100014901E901000109015D014093
:100540000101014B01480100014901E90141015F3D
:10055000021C014B014902FF01FD015F02FF014B3B
:1005600002FF01E902FF01FD015F02FF014B02FFF3
:1005700001E902FF01FD015F02FF014B02FF01E9FA
:100580000141015F01E3011C014B1F490141015F72
:10059000021C014B1F490141015F01E3011C014B9A
:1005A000014901000109015D01400101014B0148C0
:1005B0000100014901E901000109015D014001015A
:1005C000014B01480100014901E901000109015DF8
:1005D00001400101014B01480100014901E90141CC
:1005E000015F021C014B014901000109015D01404D
:1005F0000101014B01480100014901E90100010924
:10060000015D01400101014B01480100014901E97F
:1006100001000109015D01400101014B0148010098
:10062000014901E90141015F01E3011C014B01495D
:1006300002FF01FD015F02FF014B02FF01E902FF22
:1006400001FD015F02FF014B02FF01E902FF01FD15
:10065000015F02FF014B02FF01E90141015F021C42
:10066000014B1F490141015F01E3011C014B1F497F
:100670000141015F021C014B014901000109015DBB
:1006800001400101014B01480100014901E901005C
:100690000109015D01400101014B014801000149CF
:1006A00001E901000109015D01400101014B01481F
:1006B0000100014901E90141015F01E3011C014B16
:1006C000014901000109015D01400101014B01489F
:1006D0000100014901E901000109015D0140010139
:1006E000014B01480100014901E901000109015DD7
:1006F00001400101014B01480100014901E90141AB
:10070000015F021C014B014902FF01FD015F02FF75
:10071000014B02FF01E902FF01FD015F02FF014BF6
:1007200002FF01E902FF01FD015F02FF014B02FF31
:1007300001E90141015F01E3011C014B1F49014136
:10074000015F021C014B1F490141015F01E3011CD4
:10075000014B014901000109015D01400101014B0B
:1007600001480100014901E901000109015D014061
:100770000101014B01480100014901E901000109A2
:10078000015D0140050001E90141015F021C014BCF
:10079000014901000109015D01400101014B0148CE
:1007A0000100014901E901000109015D0140010168
:1007B000014B01480100014901E901000109015D06
:1007C0000140050001E90141015F01E3011C014B0A
:1007D000014902FF01FD015F02FF014B02FF01E938
:1007E00002FF01FD015F02FF014B02FF01E902FF71
:1007F00001FD0141054901E90141015F021C014B75
:1008000018490141054901E90141015F01E3011C6A
:10081000014B18490141054901E90141015F021CF1
:10082000014B014901000109015D01400101014B3A
:1008300001480100014901E904000101014B01489F
:100840000100014901E901000109015D014105497A
:1008500001E90141015F01E3011C014B0149010074
:100860000109015D01400101014B014801000149FD
:1008700001E904000101014B01480100014901E9BE
:1008800001000109015D0141054901E90141015FE3
:10089000021C014B014902FF01FD015F02FF014BF8
:1008A00002FF01E906FF014B02FF01E902FF01FD22
:1008B000015F05FF01E90141015F01E3011C014BFB
:1008C0001F490141015F021C014801091E49010144
:1008D000015F01E3011C014901011D4901480109B2
:1008E000015F021C010901401E00014901FF01E3F3
:1008F000010301011F49014B01FC011C010001E33F
:1009000001E91E4901FF01FC01E30100011F20FF75
:1009100001E3011C010001E31FFF01E3011C01E0F1
:100920000100011C01E3011C01E3011C01E3011CA6
:1009300001E3011C01E3011C01E3011C01E3011CB3
:1009400001E3011C01E3011C01E3011C01E3011CA3
:1009500001E3011C01E3011C01E3011C01E3011C93
:1009600001E3011C01E302000103011C01E3011C7E
:1009700001E3011C01E3011C01E3011C01E3011C73
:1009800001E3011C01E3011C01E3011C01E3011C63
:1009900001E3011C01E3011C01E3011C01E3011C53
:1009A00001E3011C01E3011C01E3011C030001E35D
:1009B000011C01E3011C01E3011C01E3011C01E333
:1009C000011C01E3011C01E3011C01E3011C01E323
:1009D000011C01E3011C01E3011C01E3011C01E313
:1009E000011C01E3011C01E3011C01E3011C01E006
:1009F000FE009400011F02FF01FC0B0002FF01E05A
:100A0000120004FF011F01E00200010301E00100E8
:100A1000010301E0010004FF01E0020002FF01FC0C
:100A20000B00010304FF011F01FC0200011F01E094
:100A30000100010301E0010302FF01E0011F01FCCD
:100A400004FF01FC0B00010301FC0200021F01FF77
:100A5000020001FF01E00100011F01FC010301FF91
:100A600001FC020005FF01FC0B00010301FC030077
:100A7000011F01FF0100010301FF01E00100011F4F
:100A800001FC010301FF0300011F02FF01FC0E0036
:100A900001FC0300021F0100010301FF01E001004E
:100AA000021F010001FF0300011F0100010301FCFF
:100AB0000E0001FF0300011F010301E0011F0103FC
:100AC00001E0010001FC011F010001FF030001FF23
:100AD0000100011F01E00E00011F01E00200011FE3
:100AE000010301E0011F010301E0010001FC011FFE
:100AF000010001FF030001FF0100011F01E00E00E2
:100B0000010301FC0200011F010301FC01FF0103BD
:100B100001E0010001FC010301E001FF020001FF0F
:100B200001FC0100011F01E00F00011F01FC010099
:100B3000011F010002FC010301E0010301E00103C8
:100B400001E0011F03FF01E00100011F01E00F00B0
:100B5000010301FF010001FC010002FC010301E0AF
:100B6000010301E0010001FC011F03FF020001FF7E
:100B70001100011F01E001FC010001FF01FC010364
:100B800001E0010301E0010001FC011F01E301FCA0
:100B9000030001FF1100010302FC0100011F01E03D
:100BA000010301E0011F02FF01FC011F01E001FF41
:100BB000030001FF120001FF01FC0100010301001D
:100BC000010301E0011F03FF011F01E0011F01E01C
:100BD000020001FF120001FF01FC0300010301E01C
:100BE000011F03FF011F01E0010301FC01000103DC
:100BF00001FC0E00010301E0020001FF01FC040002
:100C000002FC0200021F01E0010001FF01E00103FC
:100C100001FC0E00010304FF01FC040001FF01FCC4
:100C20000200010301FF01E00100010301FC0103D7
:100C300001FC010001FF011C01E00A00010303FFA8
:100C400002FC040001FF01FC0200010301FF01E0BE
:100C5000020001FF010301FC0100011C011F01E072
:100C60000B0003FF01E001FC040001FF01E00300B1
:100C700001FF01E00200011F01FF01E00100021C71
:100C800001E0140001FF01E0030001FF01E00200A8
:100C9000010301FF01E00100021C01E02A00000045
:100CA0000000000000000000000000000000000044
:100CB0000000000000000000000000000000000034
:100CC0000000000000000000000000000000000024
:100CD0000000000000000000000000000000000014
:10120000000000000001016378011101286332032E
:10121000C0F80002C30402C40502D01D02B30002DC
:10122000B58B0138023A0202360002B09F05F01277
:101230001212120120012900000000002500000008
:101240002B002E00310034000000000000000000E0
:10125000000000000000240000002A002D003000E3
:10126000330000000000000000000000000000004B
:101270000000260029002C002F0032000000000092
:101280000000000000000505050505050505020232
:10129000020202020404070707070404040404040A
:1012A00006060606060606060202010204081020CB
:1012B00040802010010408020201010204200408F9
:1012C000102040800102040810204080408000006F
:1012D00000090A0B000003070000000000000000E6
:1012E00000020000000000000000000000000000FC
:1012F00004050000000000000000065F0600000773
:101300000300070300247E247E2400242B6A12009D
:101310000063130864630036495620500000070339
:10132000000000003E4100000000413E00000008B7
:101330003E1C3E080008083E08080000E06000006F
:10134000000808080808000060600000002010087D
:101350000402003E5149453E0000427F40000062C9
:1013600051494946002249494936001814127F1054
:10137000002F49494931003C4A494930000171096F
:10138000050300364949493600064949291E00002F
:101390006C6C00000000EC6C00000008142241009E
:1013A00000242424242400004122140800020159AE
:1013B0000906003E415D551E007E1111117E007F21
:1013C00049494936003E41414122007F4141413E69
:1013D000007F49494941007F09090901003E41490F
:1013E000497A007F0808087F0000417F41000030F3
:1013F0004040403F007F08142241007F4040404071
:10140000007F0204027F007F0204087F003E41410A
:10141000413E007F09090906003E4151215E007FDF
:10142000090919660026494949320001017F010175
:10143000003F4040403F001F2040201F003F403CF5
:10144000403F006314081463000708700807007128
:101450004945430000007F4141000002040810207C
:10146000000041417F0000040201020400808080EE
:101470008080000003070000002054545478007F4F
:101480004444443800384444442800384444447FA9
:1014900000385454540800087E0909000018A4A418
:1014A000A47C007F040478000000007D4000004020
:1014B00080847D00007F102844000000007F4000F1
:1014C000007C04180478007C04047800003844444C
:1014D000443800FC444444380038444444FC00444C
:1014E0007844040800085454542000043E44240066
:1014F000003C40207C00001C2040201C003C603050
:10150000603C006C10106C00009CA0603C0000640B
:1015100054544C0000083E41410000000077000098
:10152000000041413E08000201020100003C262368
:10153000263C00000000000000000000065F5F067F
:1015400000000007070007070000147F7F147F7F5B
:101550001400242E2A6B6B3A1200466630180C6673
:101560006200307A4F5D377A4800000407030000BC
:101570000000001C3E63410000000041633E1C006F
:101580000000082A3E1C1C3E2A080008083E3E08AF
:101590000800000080E0600000000008080808085B
:1015A000080000000060600000006030180C0603B6
:1015B00001003E7F594D477F3E0040427F7F4040C3
:1015C0000000627359496F660000226349497F3603
:1015D0000000181C16537F7F5000276745457D3952
:1015E00000003C7E4B4979300000030371790F07FE
:1015F0000000367F49497F360000064F49693F1E8B
:1016000000000000006666000000000080E6660042
:101610000000081C36634100000000141414141468
:101620001400004163361C080000000203595D07E6
:1016300002003E7F415D5D5F0E007C7E13137E7C69
:101640000000417F7F49497F36001C3E6341416372
:101650002200417F7F41633E1C00417F7F495D4105
:101660006300417F7F491D0103001C3E63415133EC
:1016700072007F7F08087F7F000000417F7F41006C
:101680000000307040417F3F0100417F7F081C77A0
:101690006300417F7F41406070007F7F0E1C0E7FA2
:1016A0007F007F7F060C187F7F001C3E6341633EF6
:1016B0001C00417F7F49090F06001E3F2131617FD9
:1016C0005E00417F7F09197F6600266F4D4959737F
:1016D000320003417F7F410300007F7F40407F7FD6
:1016E00000001F3F60603F1F00003F7F6030607F51
:1016F0003F0063771C081C776300074F78784F071B
:101700000000476371594D677300007F7F414100BE
:1017100000000103060C183060000041417F7F008B
:101720000000080C0603060C080080808080808082
:1017300080800000030704000000207454543C78AB
:101740004000417F3F4848783000387C44446C2852
:101750000000307848493F7F4000387C54545C1882
:101760000000487E7F490306000098BCA4A4F87CD2
:101770000400417F7F08047C780000447D7D4000A8
:10178000000060E08084FD7D0000417F7F10386CA8
:10179000440000417F7F400000007C7C18781C7C66
:1017A00078007C7804047C780000387C44447C38E1
:1017B000000084FCF8A4243C1800183C24A4F8FC85
:1017C0008400447C784C040C1800485C54746424F5
:1017D000000004043E7F442400003C7C40403C7CEC
:1017E00040001C3C60603C1C00003C7C6030607C25
:1017F0003C00446C3810386C44009CBCA0A0FC7CBD
:1018000000004C64745C4C64000008083E77414161
:10181000000000000077770000004141773E080893
:101820000000020301030203010070784C464C786B
:101830007000E81C11241FBECFEFD1E4DEBFCDBF86
:1018400025E0AAE2B4E001C01D92A630B207E1F79C
:1018500014E0A0E0B2E0E2ECF4E400E00BBF02C070
:1018600007900D92AA32B107D9F71CE0CAE1DCE07B
:1018700004C02197FE010E94461DC931D107C9F756
:101880000E9410170C945F220C940000AF92BF923C
:10189000CF92DF92EF92FF920F931F93CF93DF933C
:1018A0006C017B018B01040F151FEB015E01AE186B
:1018B000BF08C017D10759F06991D601ED91FC918D
:1018C0000190F081E02DC6010995892B79F7C501BA
:1018D000DF91CF911F910F91FF90EF90DF90CF900C
:1018E000BF90AF900895FC01538D448D252F30E0BB
:1018F000842F90E0821B930B541710F0CF9608951D
:1019000001970895FC01918D828D981761F0A28D49
:10191000AE0FBF2FB11D5D968C91928D9F5F9F730F
:10192000928F90E008958FEF9FEF0895FC01918DC5
:10193000828D981731F0828DE80FF11D858D90E032
:1019400008958FEF9FEF0895FC01918D228D892FCF
:1019500090E0805C9F4F821B91098F7399270895B7
:1019600085E694E00E94A40C21E0892B09F420E094
:10197000822F0895FC01A48DA80FB92FB11DA35A81
:10198000BF4F2C91848D90E001968F739927848F9F
:10199000A689B7892C93A089B1898C9183708064C2
:1019A0008C93938D848D981306C00288F389E02D63
:1019B00080818F7D80830895EF92FF920F931F9314
:1019C000CF93DF93EC0181E0888F9B8D8C8D9813F2
:1019D0001AC0E889F989808185FF15C09FB7F894FE
:1019E000EE89FF896083E889F9898081837080644A
:1019F00080839FBF81E090E0DF91CF911F910F9195
:101A0000FF90EF900895F62E0B8D10E00F5F1F4FA3
:101A10000F731127E02E8C8D8E110CC00FB607FCB2
:101A2000FACFE889F989808185FFF5CFCE010E9440
:101A3000BA0CF1CFEB8DEC0FFD2FF11DE35AFF4FE8
:101A4000F0829FB7F8940B8FEA89FB8980818062CE
:101A5000CFCFCF93DF93EC01888D8823B9F0AA898B
:101A6000BB89E889F9898C9185FD03C0808186FD59
:101A70000DC00FB607FCF7CF8C9185FFF2CF8081A8
:101A800085FFEDCFCE010E94BA0CE9CFDF91CF9157
:101A9000089580E090E0892B29F00E94B00C81111C
:101AA0000E94000080E090E0892B49F080E090E007
:101AB000892B29F00E94000081110C9400000895E8
:101AC0003FB7F8948091430490914404A091450459
:101AD000B091460426B5A89B05C02F3F19F001968A
:101AE000A11DB11D3FBFBA2FA92F982F8827BC0178
:101AF000CD01620F711D811D911D42E0660F771FA0
:101B0000881F991F4A95D1F708958F929F92AF929F
:101B1000BF92CF92DF92EF92FF926B017C010E9405
:101B2000600D4B015C01C114D104E104F104B9F072
:101B30000E94600D681979098A099B09683E734003
:101B40008105910580F321E0C21AD108E108F1086E
:101B500088EE880E83E0981EA11CB11CE4CFFF9094
:101B6000EF90DF90CF90BF90AF909F908F900895AF
:101B70002FB7F89460913F04709140048091410424
:101B8000909142042FBF08950F931F930E94B80DA8
:101B900060936D0470936E0480936F04909370044F
:101BA00085E694E00E94820C97FF1DC00E94B80D4C
:101BB00000916D0410916E0420916F0430917004B7
:101BC000601B710B820B930B0091690410916A04E6
:101BD00020916B0430916C046017710782079307A2
:101BE000F8F28FEF9FEF1F910F910895CF93DF933E
:101BF0001F92CDB7DEB7898389818EBD00000DB4F9
:101C000007FEFDCF8EB50F90DF91CF910895982FED
:101C1000FB01DA018770907F903D29F128F4903A1A
:101C200041F0903BA1F00895903E49F1903F99F129
:101C30000895232B49F424E330E02D933C9323E3D0
:101C400030E031832083089522E330E0F6CF232B68
:101C500039F425E230E02D933C9324E230E0F1CFDB
:101C600023E230E0F8CF232B39F42BE230E02D9340
:101C70003C932AE230E0E5CF29E230E0F8CF232B95
:101C800039F42EE230E02D933C932DE230E0D9CFB1
:101C90002CE230E0F8CF232B39F421E330E02D9310
:101CA0003C9320E330E0CDCF2FE230E0F8CF1F931C
:101CB000CF93DF9300D000D0CDB7DEB7162F30E042
:101CC00020E0AE014F5F5F4FBE016D5F7F4F0E940E
:101CD000070EE981FA81111115C0408121E030E041
:101CE000B90102C0660F771F8A95E2F7CB01809594
:101CF000842380830F900F900F900F90DF91CF91EE
:101D00001F910895908121E030E001C0220F8A9553
:101D1000EAF7892F822BEDCF1F93CF93DF93182FF4
:101D2000C091490460E08C2F0E94570ED091480466
:101D300060E08D2F0E94570E812F0E94F60D61E00A
:101D40008D2F0E94570E61E08C2FDF91CF911F9154
:101D50000C94570ECF92DF92EF92FF921F93CF9386
:101D6000DF937C016B011091490460E0812F0E9498
:101D7000570EE701CE018E199F098C159D0524F49D
:101D800089910E94F60DF6CF61E0812FDF91CF910E
:101D90001F91FF90EF90DF90CF900C94570ECF9251
:101DA000DF92EF92FF920F931F93CF93DF9300D0B8
:101DB00000D0CDB7DEB78C01E62E6A01F22E8AE2A2
:101DC0000E948C0E198223E030E0C801B9010E9404
:101DD000321D6A831B82C8018C0D9D1D0197B901BC
:101DE0000E94321D6C8364E070E0CE0101960E9477
:101DF000AA0E8BE20E948C0E1982EA821B82FA9450
:101E0000FE0CFC8264E070E0CE0101960E94AA0EF6
:101E10008CE20E948C0E0F900F900F900F90DF912C
:101E2000CF911F910F91FF90EF90DF90CF90089589
:101E30008038E1E09E0764F4603A71054CF4413863
:101E4000E1E05E072CF4213A310514F40C94CF0E36
:101E500008951F93CF93DF9300D000D0CDB7DEB7A6
:101E6000162F30E020E0AE014F5F5F4FBE016D5F87
:101E70007F4F0E94070EEB81FC81113029F14081D8
:101E800021E030E0B90102C0660F771F8A95E2F7C2
:101E9000CB01123059F08095842380830F900F90EE
:101EA0000F900F90DF91CF911F910895942F982B51
:101EB0009083E981FA819081982B9083EB81FC815A
:101EC000908180958923E9CF908121E030E001C0A5
:101ED000220F8A95EAF7892F822BDFCF7F928F928C
:101EE0009F92AF92BF92CF92DF92EF92FF920F93A9
:101EF0001F93CF93DF9300D000D0CDB7DEB706ECB1
:101F000012E062E0F80181918F010E94290FF2E056
:101F10000C3C1F07B1F78AE0E4E3F4E0AAE2B4E086
:101F200001900D928A95E1F794E3E92E94E0F92E61
:101F30002CEBA22E22E0B22E8701F8011082F501CF
:101F400071905F0161E0872D0E94290F60E0872D6D
:101F50000E94570E86EC882E82E0982ED12CC12C40
:101F600021E030E0AE014D5F5F4FBE016F5F7F4FFC
:101F7000F40181914F010E94070EEB81FC812081C9
:101F800030E002C0359527958A95E2F720FD0BC019
:101F900021E030E00C2C01C0220F0A94EAF7F8018E
:101FA0008081822B8083FFEFCF1ADF0A86E0C8167C
:101FB000D104B1F661E0872D0E94570E60E0872DB5
:101FC0000E94290F0F5F1F4FE4E00E331E0709F038
:101FD000B4CF70913404172F18707071AAE2B4E076
:101FE00030E020E080E00AE0F701D1907F0150E08E
:101FF00040E061E0C22E9D2D962396131DC09C915A
:102000009623D1F4C11004C09DEF940F9230A0F03C
:1020100088E792E0111106C080E092E0711102C0E1
:102020008CE392E0049FF001059FF00D1124E80F6E
:10203000F91FE20FF31F8081660F4F5F5F4F46303D
:102040005105C9F62F5F3F4F11962A30310561F6D1
:102050000F900F900F900F90DF91CF911F910F91E4
:10206000FF90EF90DF90CF90BF90AF909F908F90B8
:102070007F90089580EC80937C00EAE7F0E087E8A9
:10208000808310927B0084E58093770087E98083CA
:1020900080818064808308950F931F93CF93DF9393
:1020A000CDB7DEB7C858D1090FB6F894DEBF0FBE62
:1020B000CDBF8A01FC01EE0FFF1F9A0141E050E005
:1020C0008E0F9F1F0E94180FA8016FEF70E0CE01C6
:1020D00001960E945E1FB801CE0101960E94AA0ED1
:1020E000C857DF4F0FB6F894DEBF0FBECDBFDF91EC
:1020F000CF911F910F910895DF92EF92FF920F936E
:102100001F93CF93DF93CDB7DEB7C058D1090FB679
:10211000F894DEBF0FBECDBF28E830E040E851E0C4
:1021200070E060E090E080E00E94CF0E08E810E0F0
:1021300080E8D82ECE0101967C01F7018D2D1192F9
:102140008A95E9F760E870E0C7010E94AA0E015085
:10215000110999F7C058DF4F0FB6F894DEBF0FBED4
:10216000CDBFDF91CF911F910F91FF90EF90DF9046
:1021700008952F923F924F925F926F927F928F922B
:102180009F92AF92BF92CF92DF92EF92FF920F9306
:102190001F93CF93DF93CDB7DEB7CC56D1090FB6DF
:1021A000F894DEBF0FBECDBF4C01A3967FAF6EAFDC
:1021B000A3972A016901F801E252FD4F1081DA016B
:1021C0000D900020E9F7CD010197841B950B3C0190
:1021D000225031092230310508F026C1B3E0CB1678
:1021E000D10409F475C07CE0E72EF12CE4E0F0E0C6
:1021F000A196FFAFEEAFA1978E9D90018F9D300D00
:102200009E9D300D1124280D391D2138314054F088
:1022100080E891E088199909B7010E94321D3B01BD
:1022200077FD0BC2A196AEACBFACA19744E0AA0C5F
:10223000BB1C4A95E1F7A796BFAEAEAEA797C70104
:10224000049763E070E00E941E1D6E5F7F4F5B018C
:10225000AA0CBB1CA596BFAEAEAEA5976F965FAE9F
:102260004EAE6F97970126503109A9963FAF2EAF1A
:10227000A997312F3C6FAA963FAFAA97812F806E06
:10228000AD968FAFAD976F968EAD9FAD6F9784195A
:1022900095098615970534F190E080E0C459DF4F29
:1022A0000FB6F894DEBF0FBECDBFDF91CF911F9167
:1022B0000F91FF90EF90DF90CF90BF90AF909F90E5
:1022C0008F907F906F905F904F903F902F900895E8
:1022D0006FE0E62EF12C25E030E0A1963FAF2EAF67
:1022E000A1978ACF6F96AEADBFAD6F978D916F9668
:1022F000BFAFAEAF6F978052990BB3E0CB16D1044E
:1023000009F062C0BC0133E0660F771F3A95E1F730
:102310006E5C7A4E48E050E0CE018B5A9F4F0E948F
:10232000151DCE01019628E0222E312C61E0AC0172
:10233000A196AEACBFACA197A80EB91EAC96BFAE2D
:10234000AEAEAC97FE01EB5AFF4F30E020E0A9960D
:10235000AEACBFACA9972A153B050CF042C070810A
:102360007623AA960FADAA97711101C0012F718132
:102370007623A9F10360AD967FADAD97B280B6220A
:1023800009F07F61AC96AEADBFADAC970C93DA01AE
:102390000C932630310549F0AC96AEADBFADAC978D
:1023A00011967C93DA0111967C934E5F5F4F2D5FFF
:1023B0003F4FAC96AEADBFADAC971296AC96BFAFEB
:1023C000AEAFAC973396C3CF26E0289FB001299FCC
:1023D000700D11246E507D4E46E050E09DCF712F60
:1023E000CDCF660FB1E02B1A3108A596AEACBFACCD
:1023F000A5978A0D9B1D2114310409F098CF20E187
:1024000030E0A701A3966EAD7FADA397C4010E94F3
:10241000180FA7966EAD7FADA797CE0101960E94CB
:10242000AA0E8E0C9F1C2FCFCD2809F07BC049E04F
:10243000489F9001499F300D1124280D391D2138E6
:1024400031405CF080E891E08819990969E070E01A
:102450000E94321D3B0177FDF0C07201BB24B39492
:10246000912F906EC92EC70184199509861597057D
:102470000CF012CFD7016D917D016052770B93E084
:10248000660F771F9A95E1F76E5C7A4E48E050E050
:10249000CE018B5A9F4F0E94151D30E020E0CE01E7
:1024A0000196D82E092F7B2D022E01C0770F0A949A
:1024B000EAF7FE01EB5AFF4FDC0150E040E060819B
:1024C000672371F16C2DA180A72209F06C61463061
:1024D000510521F0A280A72209F063606D934D5F42
:1024E0005F4F33964930510551F703962F5F3F4FA9
:1024F00028303105C1F628E030E049E050E0A396ED
:102500006EAD7FADA397C4010E94180FB9E08B0E8A
:10251000911C68E170E08D2D902F0E94AA0EA3CF30
:10252000612FD1CF46E0489F9001499F300D112483
:10253000280D391D213831405CF080E891E0881980
:10254000990966E070E00E94321D3B0177FD75C07D
:102550007201CC24C394D12C012F006EC7018419C1
:102560009509861597050CF097CED7018D917D01C1
:102570008052990BB6E0B89FB001B99F700D11243D
:102580006E507D4E46E050E0CE018B5A9F4F0E9428
:10259000151D66967FAD669767966FAD67976896CF
:1025A0003FAD68976996AFAD69976A96BFAD6A9778
:1025B0006B962FAC6B97FE01319650E040E05F01C7
:1025C000C601042E01C0880F0A94EAF7272F28239A
:1025D00081F1202F362E382209F02C61332E38223B
:1025E00009F0236020832A2F282329F1202F3B2E56
:1025F000382209F02C61822109F023602183329670
:102600004F5F5F4F48305105D9F628E030E046E093
:1026100050E0A3966EAD7FADA397C4010E94180F42
:10262000E6E08E0E911C60E170E0C5010E94AA0EEA
:1026300095CF212FCFCF212FDACF8FEF9FEF2ECE47
:10264000EF92FF920F931F93CF93DF9300D000D0B0
:10265000CDB7DEB785E0E82E82E1F82EC7010196FE
:10266000F7010491033659F4F2E0EF0EF11CFC017E
:10267000649170E090E080E00E94850DEFCF002330
:10268000C1F0F2E0EF0EF11CFC0184910E948C0E6F
:10269000015021F310E0A801B701CE0101960E947C
:1026A000151DE00EF11EB801CE0101960E94AA0E82
:1026B000D5CF0F900F900F900F90DF91CF911F917A
:1026C0000F91FF90EF9008950F931F93CF93DF9397
:1026D000CDB7DEB7C058D1090FB6F894DEBF0FBE34
:1026E000CDBF0E947C1010E000E022E030E042EE1E
:1026F00052E062E070E08CE390E00E94B91023E0C9
:1027000030E04BEF52E066E170E08CE390E00E9435
:10271000B91023E030E044E053E06AE270E08CE37B
:1027200090E00E94B91023E030E04DE053E06EE30A
:1027300070E08CE390E00E94B91027E830E043E3BA
:1027400050E070E060E090E080E00E94CF0E07E88B
:1027500010E041E150E069E470E0CE0101960E9492
:102760005E1F61E170E0CE0101960E94AA0E015049
:10277000110979F727E830E043E350E070E060E0CA
:102780008AE491E00E94CF0E07E810E041E150E0BA
:1027900069E470E0CE0101960E945E1F61E170E085
:1027A000CE0101960E94AA0E0150110979F747E85F
:1027B00050E070E060E081E190E00E944C1047E85A
:1027C00050E070E060E08EE690E00E944C1001E086
:1027D00010E023E030E046E153E062E070E090E09A
:1027E00080E00E94B91023E030E04AE153E060E26B
:1027F00070E090E080E00E94B91023E030E04EE10C
:1028000053E06EE370E090E080E00E94B91023E0B6
:1028100030E042E253E06CE570E090E080E00E943E
:10282000B91023E030E046E253E06AE770E090E060
:1028300080E00E94B91023E030E04AE253E062E019
:1028400070E080E591E00E94B91023E030E04EE2B4
:1028500053E060E270E080E591E00E94B91023E06F
:1028600030E042E353E06EE370E080E591E00E94E7
:10287000B91023E030E046E353E06CE570E080E51A
:1028800091E00E94B91023E030E04AE353E06AE7A8
:1028900070E080E591E00E94B91044E350E06BE6FF
:1028A00070E080E490E00E944C1022E030E047E1CC
:1028B00051E06BE670E083E390E00E94CF0E4DE5BF
:1028C00050E06FEF70E0CE0101960E945E1F6DE553
:1028D00070E0CE0101960E94AA0E6DE570E0CE0177
:1028E00001960E94AA0EC058DF4F0FB6F894DEBFC3
:1028F0000FBECDBFDF91CF911F910F910895FC01C5
:1029000080819181009711F00C94EB1D08950F9335
:102910001F93CF93DF93EC0188819981009759F041
:102920002A813B812617370730F081E0DF91CF9174
:102930001F910F9108958B016F5F7F4F0E94741E4E
:10294000009759F0998388831B830A832C813D81EA
:10295000232B59F7FC011082E8CF80E0E7CFEF92FC
:10296000FF920F931F93CF93DF93EC017B018A01BA
:10297000BA010E94871428813981811114C0211560
:10298000310519F0C9010E94EB1D198218821D82C0
:102990001C821B821A82CE01DF91CF911F910F9171
:1029A000FF90EF9008951D830C83B701C9010E9429
:1029B000651FF1CFEF92FF920F931F93CF93DF9399
:1029C00000D000D000D0CDB7DEB7EDB6FEB61A828B
:1029D00019821C821B821E821D82FC016081718112
:1029E0006115710531F044815581CE0101960E9437
:1029F000AF140DB71EB72D813E81A9014150510979
:102A00008DB79EB7821B930B0FB6F8949EBF0FBE77
:102A10008DBF0196232B21F069817A810E946C1F62
:102A20000FB6F8941EBF0FBE0DBFCE0101960E94D7
:102A30007F1410E000E021E030E050E040E063E788
:102A400070E090E080E00E94B9100FB6F894FEBEEE
:102A50000FBEEDBE26960FB6F894DEBF0FBECDBFFB
:102A6000DF91CF911F910F91FF90EF900895EF921A
:102A7000FF920F931F93CF93DF9300D0CDB7DEB7B4
:102A80008C01FC0111821082138212821582148241
:102A900050E040E061E773E00E94AF140E94C40D73
:102AA00097FD21C08A309105F1F089831A82F801DF
:102AB000E480F580FFEFEF1AFF0AB701C8010E941A
:102AC0008714882359F3F80120813181848195810D
:102AD000BE016F5F7F4F820F931F0E94651FF80139
:102AE000F582E482DBCFC8010F900F90DF91CF9188
:102AF0001F910F91FF90EF9008954F925F926F9208
:102B00007F928F929F92AF92BF92EF92FF920F931C
:102B10001F93CF93DF93CDB7DEB72C970FB6F89402
:102B2000DEBF0FBECDBF0E94B80DE0E2F1E0949190
:102B3000E1E2F1E08491E2E2F1E04491E3E2F1E0EC
:102B4000E4912E2F30E0322F2227240F311D482F01
:102B500050E0542F4427490F511D70E060E090E091
:102B600080E00E94180FB090490460E08B2D0E9415
:102B7000570E04E211E0F801A490AA2061F031960A
:102B8000E490F12C8E2D0E94F60DF394AF10FACF45
:102B90000E5F1F4FF0CF61E08B2D0E94570E01E0BA
:102BA00010E022E030E04EE353E06EE670E08AE8A9
:102BB00090E00E94B910812C912C54019EE0E92EE6
:102BC000FF24F3940E946E0F81115CC085E694E0AF
:102BD0000E94A40C181619060CF5CE0107960E9447
:102BE00037151A8219821C821B821E821D826F81F8
:102BF00078856115710531F04B855C85CE010196B4
:102C00000E94AF14CE0101960E94DA14CE01019603
:102C10000E947F14CE0107960E947F140E94B80D77
:102C20002B013C01DC01CB0188199909AA09BB09D8
:102C3000843F9140A105B10528F201E010E022E0B7
:102C400030E04FE453E06EE670E0C7010E94B91037
:102C50002CE0E20EF11C87E5E81681E0F80624F08E
:102C60008EE0E82EFF24F39401E010E022E030E053
:102C70004CE253E06EE670E0C7010E94B9105301C8
:102C80004201A0CF2C960FB6F894DEBF0FBECDBF89
:102C9000DF91CF911F910F91FF90EF90BF90AF9078
:102CA0009F908F907F906F905F904F9008951F92AC
:102CB0000F920FB60F9211240BB60F922F933F93E2
:102CC0004F935F936F937F938F939F93AF93BF9334
:102CD000EF93FF9385E694E00E94BA0CFF91EF9189
:102CE000BF91AF919F918F917F916F915F914F9124
:102CF0003F912F910F900BBE0F900FBE0F901F9022
:102D000018951F920F920FB60F9211240BB60F92C7
:102D10002F938F939F93EF93FF93E0917504F0911E
:102D200076048081E0917B04F0917C0482FD1DC0DB
:102D3000908180917E048F5F8F7320917F04821732
:102D400041F0E0917E04F0E0EB59FB4F958F8093CA
:102D50007E04FF91EF919F918F912F910F900BBE69
:102D60000F900FBE0F901F9018958081F2CF1F9289
:102D70000F920FB60F9211242F933F938F939F932F
:102D8000AF93BF9380913F0490914004A091410480
:102D9000B091420430913E0423E0230F2D3758F5C3
:102DA0000196A11DB11D20933E0480933F04909392
:102DB0004004A0934104B093420480914304909155
:102DC0004404A0914504B09146040196A11DB11D93
:102DD0008093430490934404A0934504B093460425
:102DE000BF91AF919F918F913F912F910F900FBE07
:102DF0000F901F90189526E8230F0296A11DB11D74
:102E0000D2CF1F920F920FB60F9211248F9383B7D8
:102E10008E7F83BF8F910F900FBE0F901F901895DC
:102E2000CF93DF93CDB7DEB7C559D1090FB6F8946C
:102E3000DEBF0FBECDBF789484B5826084BD84B5FB
:102E4000816084BD85B5826085BD85B5816085BDA5
:102E500080916E00816080936E001092810080915D
:102E600081008260809381008091810081608093E5
:102E70008100809180008160809380008091B1000A
:102E800084608093B1008091B00081608093B00035
:102E90008091910082608093910080919100816087
:102EA0008093910080919000816080939000809148
:102EB000A10082608093A1008091A1008160809335
:102EC000A1008091A00081608093A00080912101E9
:102ED0008260809321018091210181608093210192
:102EE0008091200181608093200180917A0084602C
:102EF00080937A0080917A00826080937A0080913A
:102F00007A00816080937A0080917A008068809353
:102F10007A001092C100E0917504F091760482E08D
:102F20008083E0917104F09172041082E091730447
:102F3000F091740480E1808310927D04E091790423
:102F4000F0917A0486E08083E0917704F091780430
:102F5000808180618083E0917704F09178048081A2
:102F600088608083E0917704F091780480818068A4
:102F70008083E0917704F091780480818F7D808355
:102F80000E943A1087EE8093490486ED80934804AE
:102F900082EA8093470461E080EB0E94570E61E073
:102FA00080EB0E94290F80E58CBD81E08DBD8DB541
:102FB0008EB561E081EB0E94290F61E082EB0E94F7
:102FC000290F1091490461E0812F0E94290F61E0CF
:102FD00083ED0E94290F61E0812F0E94570E61E06E
:102FE000809148040E94290FF090470461E08F2DE2
:102FF0000E94290F61E08F2D0E94570E62E370E05E
:1030000080E090E00E94850D60E08F2D0E94570EB9
:1030100065E070E080E090E00E94850D61E08F2D1A
:103020000E94570E66E970E080E090E00E94850DF6
:103030000E9420130E947C104DE150E061E573E096
:1030400085E694E00E94460C42E050E06FE673E0B3
:1030500085E694E00E94460C0E947D150E94641350
:103060000E94B80D609361047093620480936304BE
:103070009093640460934C0470934D0480934E04C9
:1030800090934F04EEEBF2E12491EAE9F2E18491AE
:103090008823C9F090E0880F991FFC01EE5AFD4E7D
:1030A000A591B491FC01E85CFD4E459154919FB708
:1030B000F8943C91822F809583238C93FA01808130
:1030C000282B20839FBF7E01F1E8EF0EF11C9E01AB
:1030D0002F5F3F4F690162E5262E64E0362EE2EE57
:1030E000F2E12491EEEBF2E19491EAE9F2E18491CC
:1030F000811199C10E947C1088E20E948C0E80E1AF
:103100000E948C0E82E08093390110927A005298CE
:103110005A9AEA98809169008F7C80936900E29ABC
:10312000EA9A83B7817F846083BF83B7816083BF5E
:1031300088950E9420130E9464130E943A100E94F6
:10314000B80D60936104709362048093630490935C
:10315000640460934C0470934D0480934E049093E8
:103160004F0485E694E00E94A40C18161906ECF4AE
:10317000C7010E9437151A8219821C821B821E8287
:103180001D82F701608171816115710529F044810B
:103190005581C6010E94AF14C6010E94DA14C6010F
:1031A0000E947F14C7010E947F140E94B80D0091F5
:1031B0006104109162042091630430916404601BE7
:1031C000710B820B930B693E73408105910508F4E6
:1031D00082C00E94B80D6093610470936204809372
:1031E0006304909364048FE0F10111928A95E9F7EA
:1031F00080917A00806480937A0080917A0086FDC5
:10320000FCCF209178008091790090E0982F88275A
:10321000820F911D46E0489F9001499F300D112477
:103220003F932F9322E733E03F932F931F924EE07B
:10323000B42EBF923F922F920E947B1F10E000E0BD
:1032400023E030E04AE453E066E170E08DEB90E08B
:103250000E94B91023E030E042E554E066E170E0FE
:103260008DEB90E00E94B9108FE0F10111928A95E8
:10327000E9F7809151048F93809150048F9322E756
:1032800033E03F932F931F92BF923F922F920E9461
:103290007B1F23E030E04AE453E06AE270E08DEB0C
:1032A00090E00E94B91023E030E042E554E06AE289
:1032B00070E08DEB90E00E94B910809150049091E5
:1032C0005104019690935104809350040FB6F894E2
:1032D000DEBF0FBECDBF0E94B80D00914C0410910F
:1032E0004D0420914E0430914F04601B710B820BF2
:1032F000930B653671058105910508F4AAC20E94F9
:10330000B80D60934C0470934D0480934E049093D9
:103310004F040E946E0FB82E882309F49AC28FE0E2
:10332000F10111928A95E9F71F92BF928B2DF0E27D
:10333000BF160CF480E2282F082E000C330B3F93AD
:103340008F9325E733E03F932F931F928EE08F9367
:103350003F922F920E947B1F10E000E023E030E0BC
:103360004AE453E06EE370E08DEB90E00E94B91008
:1033700023E030E042E554E06EE370E08DEB90E056
:103380000E94B9100FB6F894DEBF0FBECDBF94E710
:10339000B91262C280E1F70111928A95E9F7CE561F
:1033A000DF4FF982E882C259D040912C812C81FEF6
:1033B000ACC0F0E1CF56DF4FF883C159D0400E9436
:1033C0007C100E94600D2B013C01B12CA12C48E81F
:1033D00050E0CF56DF4F8881C159D040481B51097A
:1033E000CC56DF4F59834883C459D0406A2D70E0D2
:1033F000CC56DF4FE881F981C459D040E617F70772
:103400000CF48AC010E000E094014EE753E090E035
:1034100080E00E94B910CF56DF4FF881C159D040EB
:10342000AF0EB394E3CF222301F121502231E8F40F
:10343000E22FF0E0E25EF54E0C94461D4A1A4E1A59
:10344000301A421A461A351A511A571A5B1A611A5B
:10345000651A691A6F1A731A351A771A7D1A811A42
:10346000209180002F7720938000E82FF0E0EE0F6E
:10347000FF1FE459FD4EA591B4918C91982309F456
:1034800039CE6FCE209180002F7DEDCF209180002E
:10349000277FE9CF24B52F7724BDE7CF24B52F7D33
:1034A000FBCF2091B0002F772093B000DECF20918A
:1034B000B0002F7DF9CF209190002F7720939000BE
:1034C000D4CF209190002F7DF9CF20919000277FBD
:1034D000F5CF2091A0002F772093A000C6CF209198
:1034E000A0002F7DF9CF2091A000277FF5CF20915C
:1034F00020012F7720932001B8CF209120012F7D2C
:10350000F9CF20912001277FF5CF28E0CF56DF4F5C
:103510002883C159D04053CF0E94600D9B01AC015C
:10352000241935094609570929013A01CE56DF4FBA
:10353000E881F981C259D0404192519261927192D1
:10354000CE56DF4FF983E883C259D04026E330E0FE
:1035500040E950E060E170E088E190E00E94CF0E29
:1035600006E310E0F60120E311922A95E9F760E303
:1035700070E0C6010E94AA0E0150110999F721E0DE
:1035800030E040E950E060E170E088E190E00E94C6
:10359000CF0E40E350E06FEF70E0C6010E945E1F67
:1035A00060E370E0C6010E94AA0E21E030E040E92D
:1035B00050E065E470E088E190E00E94180F40E37D
:1035C00050E06FEF70E0C6010E945E1F60E370E0A4
:1035D000C6010E94AA0E26E330E043E050E060E11D
:1035E00070E088E190E00E94CF0E46E350E06FEF7C
:1035F00070E0C6010E945E1F66E370E0C6010E9493
:10360000AA0E26E330E043E050E060E170E085EA96
:1036100090E00E94180F46E350E06FEF70E0C601A3
:103620000E945E1F66E370E0C6010E94AA0E1F9210
:10363000BF924FEB53E05F934F931F929EE09F9397
:103640003F922F920E947B1F10E000E022E030E0CA
:1036500042E554E064E170E081E290E00E94B9103C
:1036600022E030E043EC53E064E170E085E490E078
:103670000E94B9107F926F925F924F92E9ECF3E053
:10368000FF93EF931F923EE03F933F922F920E9451
:103690007B1F22E030E042E554E064E270E081E22A
:1036A00090E00E94B91022E030E040ED53E064E386
:1036B00070E08EE190E00E94B9100FB6F894DEBF82
:1036C0000FBECDBF0E946E0F8823E1F35FEF851A16
:1036D000950A84E08816910409F069CE0E947C1056
:1036E00010E000E022E030E04CED53E064E170E0F7
:1036F0008EE190E00E94B910F70183818F9382815F
:103700008F9381818F9380818F9399ECA92E93E081
:10371000B92EBF92AF921F922EE0922E9F923F92AF
:103720002F920E947B1F22E030E042E554E064E1EA
:1037300070E086E990E00E94B91022E030E045EEAA
:1037400053E068E270E08EE190E00E94B910F7016A
:1037500087818F9386818F9385818F9384818F93C7
:10376000BF92AF921F929F923F922F920E947B1F17
:1037700022E030E042E554E068E270E086E990E063
:103780000E94B91022E030E04EEE53E06CE370E0AE
:103790008EE190E00E94B910F70183858F938285B6
:1037A0008F9381858F9380858F93BF92AF921F9265
:1037B0009F923F922F920E947B1F22E030E042E5D1
:1037C00054E06CE370E086E990E00E94B91022E0DA
:1037D00030E047EF53E060E570E08EE190E00E945A
:1037E000B910F70187858F9386858F9385858F9391
:1037F00084858F93BF92AF921F929F923F922F9298
:103800000E947B1F0FB6F894DEBF0FBECDBF22E033
:1038100030E042E554E060E570E086E990E00E9427
:10382000B9100E946E0F8823E1F30E9464130E9476
:10383000B80D609361047093620480936304909365
:10384000640460934C0470934D0480934E049093F1
:103850004F040E94490D43CC33E7B312B3C00E941A
:103860007C10912C812CB12CA12C8EE0782EBF9253
:10387000AF9242E753E05F934F931F927F923F9244
:103880002F920E947B1F10E000E030E020E042E534
:1038900054E0B40190E080E00E94B91030E020E0F4
:1038A00040E054E0B4018BE190E00E94B9109FEF3A
:1038B000A91AB90AE8E08E0E911C0FB6F894DEBF83
:1038C0000FBECDBF31E1A316B10489F668EB7BE0F2
:1038D00080E090E00E94850D83E30E948C0E1982A7
:1038E00080E88A8380E28B8363E070E0C6010E94F7
:1038F000AA0E40E850E05093B5024093B402B12CB8
:10390000A12C80914A0490914B04019660E870E0EC
:103910000E94321D182F80934A0490934B0487E332
:103920000E948C0E198361E070E0C6010E94AA0E0D
:10393000C5018F709927892B09F43FC064E170E0BD
:1039400080E090E00E94850D5FEFA51AB50A80E83F
:10395000A816B104B1F610E000E030E020E04BE141
:1039600054E060E870E090E080E00E94B91083E3EA
:103970000E948C0E198280EA8A831B8263E070E0C9
:10398000C6010E94AA0EE0EAF0E0F093B502E093CF
:10399000B40210924B0410924A0487E30E948C0EEA
:1039A000198261E070E0C6010E94AA0E68EB7BE01C
:1039B00080E090E00E94850D38CF66E970E080E0FD
:1039C00090E0C0CFF8E6BF1244CF0E947D152DCF06
:1039D000E5E6F4E01382128288EE93E0A0E0B0E026
:1039E00084839583A683B78380ED92E0918380835F
:1039F00085EC90E09587848784EC90E097878687B4
:103A000080EC90E0918B808B81EC90E0938B828BAB
:103A100082EC90E0958B848B86EC90E0978B868B84
:103A2000118E128E138E148E0895FB01DC0102C0DC
:103A300005900D9241505040D8F70895AA1BBB1B2A
:103A400051E107C0AA1FBB1FA617B70710F0A61B9E
:103A5000B70B881F991F5A95A9F780959095BC01BF
:103A6000CD01089597FB072E16F4009407D077FD3B
:103A700009D00E941E1D07FC05D03EF4909581954B
:103A80009F4F0895709561957F4F0895EE0FFF1F2A
:103A90000024001C0BBE0790F691E02D09940F93B3
:103AA0001F93CF93DF938230910510F482E090E072
:103AB000E0910405F091050530E020E0B0E0A0E0E1
:103AC000309799F42115310509F44AC0281B390BA8
:103AD00024303105D8F58A819B816115710589F102
:103AE000FB0193838283FE0111C0408151810281D9
:103AF000138148175907E0F04817590799F41097B0
:103B000061F012960C93129713961C933296CF0184
:103B1000DF91CF911F910F910895009304051093A9
:103B20000505F4CF2115310551F04217530738F040
:103B3000A901DB019A01BD01DF01F801C1CFEF014D
:103B4000F9CF9093050580930405CDCFFE01E20FD8
:103B5000F31F819391932250310939832883D7CF62
:103B60002091020530910305232B41F42091B802E6
:103B70003091B90230930305209302052091B602DB
:103B80003091B7022115310541F42DB73EB7409170
:103B9000BA025091BB02241B350BE0910205F09153
:103BA0000305E217F307A0F42E1B3F0B2817390774
:103BB00078F0AC014E5F5F4F2417350748F04E0F89
:103BC0005F1F5093030540930205819391939FCF0C
:103BD000F0E0E0E09CCFCF93DF930097E9F0FC01A9
:103BE000329713821282A0910405B0910505ED0170
:103BF00030E020E01097A1F420813181820F931FE3
:103C000020910205309103052817390709F061C09A
:103C1000F0930305E0930205DF91CF910895EA0147
:103C2000CE17DF07E8F54A815B819E0141155105FA
:103C3000B1F7E901FB83EA8349915991C40FD51F7C
:103C4000EC17FD0761F4808191810296840F951F26
:103C5000E90199838883828193819B838A83F0E041
:103C6000E0E012968D919C9113970097B9F52D91F4
:103C70003C911197CD010296820F931F209102056E
:103C8000309103052817390739F6309751F510920E
:103C9000050510920405B0930305A0930205BCCF5F
:103CA000D383C28340815181840F951FC817D907E0
:103CB00061F44E5F5F4F88819981480F591F51838E
:103CC00040838A819B81938382832115310509F08A
:103CD000B0CFF0930505E09304059ECFFD01DC0114
:103CE000C0CF13821282D7CF4F925F926F927F9292
:103CF0008F929F92AF92BF92CF92DF92EF92FF92FC
:103D00000F931F93CF93DF938C01009799F4CB010E
:103D1000DF91CF911F910F91FF90EF90DF90CF90A7
:103D2000BF90AF909F908F907F906F905F904F90DB
:103D30000C944F1DFC01E60FF71F9C012250310926
:103D4000E217F30708F4AEC0D901CD91DC911197C9
:103D5000C617D70720F1C530D10578F0CE010497FA
:103D60008617970750F0C61BD70B2297C193D193A4
:103D70006D937C93CF010E94EB1DC801DF91CF9121
:103D80001F910F91FF90EF90DF90CF90BF90AF9079
:103D90009F908F907F906F905F904F9008955B0100
:103DA000AC1ABD0A4C018C0E9D1EA0910405B09169
:103DB0000505512C412CF12CE12C109731F5809107
:103DC0000205909103058815990509F05CC0461617
:103DD000570608F058C08091B6029091B70200973C
:103DE00041F48DB79EB74091BA025091BB02841B3B
:103DF000950BE817F90708F055C0F0930305E09319
:103E00000205F90171836083B8CF8D919C91119760
:103E100012966C90129713967C901397A815B9057B
:103E200059F56C0142E0C40ED11CCA14DB0420F128
:103E3000AC014A195B09DA011296159780F062828B
:103E4000738251834083D9016D937C93E114F10413
:103E500071F0D7011396FC93EE9312978ECF2296B2
:103E60008C0F9D1FF90191838083F301EFCFF093B5
:103E70000505E093040581CF4816590608F42C0186
:103E80007D01D3019ACFCB010E944F1D7C01009789
:103E900049F0AE01B8010E94551FC8010E94EB1DF8
:103EA00087016BCF10E000E068CFFB01DC0102C0AE
:103EB00001900D9241505040D8F70895DC0101C0A7
:103EC0006D9341505040E0F70895FB01DC010190F3
:103ED0000D920020E1F70895FB01DC0141505040B4
:103EE00048F001900D920020C9F701C01D92415089
:103EF0005040E0F708950F931F93CF93DF93CDB712
:103F0000DEB72E970FB6F894DEBF0FBECDBF0D897A
:103F10001E898F89988D26E02C831A83098397FF49
:103F200002C080E090E801979E838D83AE01455EDC
:103F30005F4F698D7A8DCE0101960E94B81F4D8129
:103F40005E8157FD0AC02F813885421753070CF454
:103F50009A01020F131FF80110822E960FB6F894E3
:103F6000DEBF0FBECDBFDF91CF911F910F9108959E
:103F70002F923F924F925F926F927F928F929F9279
:103F8000AF92BF92CF92DF92EF92FF920F931F9367
:103F9000CF93DF93CDB7DEB72B970FB6F894DEBF84
:103FA0000FBECDBF7C013B018A01FC011782168246
:103FB000838181FFDDC1CE0101965C01F701938110
:103FC000F30193FD859193FF81913F01882309F4CB
:103FD00053C1853239F493FD859193FF81913F015F
:103FE000853229F4B70190E00E94D121E7CF912CCE
:103FF000212C312CFFE1F31538F08B3211F190F4C4
:10400000803209F1833229F137FC3CC020ED280FC2
:104010002A3050F536FE20C08AE0989E200D1124EB
:10402000922E06C08D3291F0803371F7689430F88B
:10403000F30193FD859193FF81913F018111DACFC7
:1040400021C0689431F8689432F8F2CF689433F85C
:10405000EFCF689434F8ECCFEAE02E9E200D1124C7
:10406000222E689435F8E4CF8E3229F436FC04C150
:10407000689436F8DDCF8C3619F4689437F8D8CFC9
:104080008836B1F2982F9F7D95549330E0F08336B7
:10409000A1F18337C1F1833509F063C02801F2E053
:1040A0004F0E511CF801C080D180692D70E036FCA4
:1040B00002C06FEF7FEFC6010E94BB214C016894E4
:1040C00037F882010AC00C5F1F4FFFE3F983882491
:1040D0008394912C6501E89437F833FE2DC0522C5F
:1040E0008114910471F5552009F468CFB70180E27D
:1040F00090E00E94D1215A94F6CFF8018081898303
:104100000E5F1F4FE4CF2801F2E04F0E511CF80163
:10411000C080D180692D70E036FC02C06FEF7FEF68
:10412000C6010E94C6214C018201D5CFB70180E2B1
:1041300090E00E94D1212A942814190409F0B0F7C4
:10414000CECFF60137FC859137FE81916F01B70123
:1041500090E00E94D12151105A94F1E08F1A9108F9
:10416000BFCF843619F0893609F077C0F80137FEE1
:104170006BC060817181828193810C5F1F4FF32D31
:10418000FF763F2E97FF09C09095809570956195B9
:104190007F4F8F4F9F4F689437F82AE030E0A5019A
:1041A0000E940122C82ECA188C2C432C36FE0CC04B
:1041B000E89440F8C91440F434FE05C032FC03C052
:1041C000F32DFE7E4F2E892C44FEAAC0FE01EC0D7D
:1041D000F11D8081803309F09CC0242D297E422E60
:1041E000842D8870582E43FCAAC040FEA4C09C2C8D
:1041F000821418F42C0C922C981844FEA6C0B70117
:1042000080E390E00E94D12142FE09C088E790E05F
:1042100041FE02C088E590E0B7010E94D121C91497
:1042200008F49FC0CA94D12C9FEFC91AD90ACA0CAE
:10423000DB1CF60182916F01B70190E00E94D12151
:10424000AC14BD04B1F74FCF60817181072E000C13
:10425000880B990B0E5F1F4F92CFD32CE894D4F8A4
:104260002AE030E08537E1F1232D297FD22E8F36E9
:10427000A9F1F0F4883551F1F701868197812B96E9
:104280000FB6F894DEBF0FBECDBFDF91CF911F9167
:104290000F91FF90EF90DF90CF90BF90AF909F90E5
:1042A0008F907F906F905F904F903F902F900895E8
:1042B000803749F0883701F7D4FE02C06894D2F8FD
:1042C00020E130E00DC06894D4F8F6CF34FE03C08E
:1042D000822F8660D82E20E132E002C028E030E054
:1042E000F801D7FE0FC060817181828193810C5FDC
:1042F0001F4FA5010E940122C82ECA183D2CE89428
:1043000037F852CF6081718190E080E00E5F1F4FDF
:10431000F0CF42FC02C0839463CF8394839460CF38
:10432000842D867809F45CCFF6CFB70180E290E067
:104330000E94D12183948214C0F3512C5ECF522C61
:104340005818821408F459CFF8CF842D867809F4D0
:1043500066CF8BE241FE80E247FC8DE2B70190E040
:104360005CCFB70180E390E00E94D1219A9457CFAF
:104370008FEF9FEF84CFFC010590615070400110DA
:10438000D8F7809590958E0F9F1F0895FC0161507E
:10439000704001900110D8F7809590958E0F9F1F67
:1043A00008950F931F93CF93DF93182F092FEB01DD
:1043B0008B8181FD09C01FEF0FEF812F902FDF91BF
:1043C000CF911F910F91089582FF14C02E813F81DC
:1043D0008C819D81281739073CF4E881F981CF0150
:1043E00001969983888310838E819F8101969F8394
:1043F0008E83E3CFE885F985812F0995892BA1F379
:10440000DACFFA01AA27283051F1203181F1E8945E
:104410006F936E7F6E5F7F4F8F4F9F4FAF4FB1E0B7
:104420003ED0B4E03CD0670F781F891F9A1FA11DB2
:10443000680F791F8A1F911DA11D6A0F711D811DB3
:10444000911DA11D20D009F468943F912AE0269F78
:1044500011243019305D3193DEF6CF010895462FD7
:104460004770405D4193B3E00FD0C9F7F6CF462FB8
:104470004F70405D4A3318F0495D31FD4052419321
:1044800002D0A9F7EACFB4E0A695979587957795DE
:104490006795BA95C9F700976105710508959B0165
:1044A000AC010A2E06945795479537952795BA95EE
:1044B000C9F7620F731F841F951FA01D0895F894FC
:1044C000FFCF2132332425362722282971776572C0
:1044D0007479753B5B5D3D2B2D6667686A3A3F08D2
:1044E000002A2F6376626E050004000D0000013C77
:1044F0003E6D0203F0F1F2F3F4F5F6F7F8F931321C
:104500003334353637383930717765727479756977
:104510006F706173646667686A6B6C0D007A7863AC
:1045200076626E050004000D1B00202C2E6D020328
:10453000F0F1F2F3F4F5F6F7F8F9313233343536B9
:104540003738393051574552545955494F504153D6
:10455000444647484A4B4C08005A584356424E0579
:104560000004000D00005F2C2E4D0203F0F1F2F369
:10457000F4F5F6F7F8F98800000006058000E4F18C
:10458000F3E2E1D7A0A5D5D4E6B7B6B5B4E0000014
:104590000000DC0C460C730C290DA40C820C960C4C
:1045A000004992FF5261737062657272792050699E
:1045B000205A65726F20572076312E330042617485
:1045C000746572793A00557074696D65203A004BD4
:1045D0006579202020203A003C2041003C20420008
:1045E0003C2043003C2044003C20450046203E0047
:1045F00047203E0048203E0049203E004A203E0021
:104600004869742061206B657920202020202020BB
:10461000202000534D4152545F526573706F6E738A
:10462000655F58455F696E697469616C697A656434
:10463000000D0A0025750025632C20253032580016
:104640006162636465666768696A6B6C6D6E6F70E2
:104650007172737475767778797A4142434445462E
:104660004748494A4B4C4D4E4F5051525354555662
:104670005758595A30313233343536373839213F6B
:1046800000253264004C696E657300256C752075D9
:10469000730050726573732061206B6579004E6FF3
:1046A000726D616C3A2000536D616C6C203A200091
:1046B0004D656469756D3A20004C61726765203AFA
:1046C00020006162636465666768696A6B6C6D6E21
:1046D0006F707172737475767778797A00202054D0
:0C46E000686174277320616C6C2020005E
:10F000000C9490F80C94AFF80C94AFF80C94AFF803
:10F010000C94AFF80C94AFF80C94AFF80C94AFF8D4
:10F020000C94AFF80C94AFF80C94AFF80C94AFF8C4
:10F030000C94AFF80C94AFF80C94AFF80C94AFF8B4
:10F040000C94AFF80C94AFF80C94AFF80C94AFF8A4
:10F050000C94AFF80C94AFF80C94AFF80C94AFF894
:10F060000C94AFF80C94AFF80C94AFF80C94AFF884
:10F070000C94AFF80C94AFF80C94AFF80C94AFF874
:10F080000C94AFF80C94AFF80C94AFF80C94AFF864
:10F090000C94AFF80C94AFF80C94AFF80C94AFF854
:10F0A0000C94AFF80C94AFF80C94AFF80C94AFF844
:10F0B0000C94AFF80C94AFF80C94AFF80C94AFF834
:10F0C0000C94AFF80C94AFF80C94AFF80C94AFF824
:10F0D0000C94AFF80C94AFF80C94AFF80C94AFF814
:10F0E0000C94AFF80C94AFF80C94AFF80C94AFF804
:10F0F0000C94AFF80C94AFF80C94AFF80C94AFF8F4
:10F100000C94AFF80C94AFF80C94AFF80C94AFF8E3
:10F110000C94AFF80C94AFF80C94AFF80C94AFF8D3
:10F1200011241FBECFEFD1E4DEBFCDBF12E0A0E0BF
:10F13000B2E0EAE6F8EF01E00BBF02C007900D92E3
:10F14000A230B107D9F713E0A2E0B2E001C01D92EE
:10F15000AD30B107E1F70E94CCF90C9433FC0C946C
:10F1600000F8982F80910202813019F0823041F02E
:10F1700008958091C00085FFFCCF9093C60008954C
:10F180008091C80085FFFCCF9093CE0008951F9317
:10F19000982F9595959595959595905D8F708A305A
:10F1A00054F4182F105D892F0E94B1F8812F0E940E
:10F1B000B1F81F910895182F195A892F0E94B1F89C
:10F1C000812F0E94B1F81F910895EF92FF920F9343
:10F1D0001F9380910202813069F1823031F080E02A
:10F1E0001F910F91FF90EF900895EE24FF24870167
:10F1F0008091C80087FD17C00894E11CF11C011D17
:10F20000111D81E4E81682E4F8068FE0080780E02B
:10F21000180770F3E0910402F091050209958091BE
:10F22000C80087FFE9CF8091CE001F910F91FF901A
:10F23000EF900895EE24FF2487018091C00087FDA0
:10F2400017C00894E11CF11C011D111D81E4E81692
:10F2500082E4F8068FE0080780E0180770F3E09179
:10F260000402F091050209958091C00087FFE9CF63
:10F270008091C6001F910F91FF90EF9008951F930A
:10F280000E94E5F8182F0E94B1F8113634F41033BB
:10F290000CF01053812F1F9108951755812F1F9146
:10F2A00008951F930E943FF9182F0E943FF912956D
:10F2B000107F810F1F910895982F209102029923AA
:10F2C00039F0213031F0223061F091509923C9F7A3
:10F2D00008958091C00087FFFCCF8091C6009150B7
:10F2E000F5CF8091C80087FFFCCF8091CE00915070
:10F2F000EDCF1F93182F0E94E5F8803281F08091A6
:10F3000003028F5F80930302853011F01F910895EF
:10F31000E0910402F091050209951F91089584E19E
:10F320000E94B1F8812F0E94B1F880E10E94B1F8EB
:10F330001F9108950E94E5F8803271F080910302D8
:10F340008F5F80930302853009F00895E0910402F5
:10F35000F09105020995089584E10E94B1F880E1D9
:10F360000E94B1F8089540E951E08823A1F0299A5C
:10F3700028EE33E0FA013197F1F721503040D1F710
:10F38000299828EE33E0FA013197F1F72150304007
:10F39000D1F7815061F708950F931F93CF93DF93B7
:10F3A000000081E08093020280E18093C40010920B
:10F3B000C5001092C00086E08093C20088E180936F
:10F3C000C1006898709A219A86E00E94B3F90E9461
:10F3D000E5F88033B1F18133B9F1803409F454C0D8
:10F3E000813409F45AC0823409F469C0853409F4BF
:10F3F0006CC0803531F1823521F1813511F18535CF
:10F4000009F469C0863509F471C0843609F47AC0FC
:10F41000843709F4F5C0853709F455C1863709F4F6
:10F420004AC0809103028F5F80930302853079F692
:10F43000E0910402F091050209950E94E5F88033FD
:10F4400051F60E949AF9C3CF0E94E5F8803249F73D
:10F4500084E10E94B1F881E40E94B1F886E50E943F
:10F46000B1F882E50E94B1F880E20E94B1F889E427
:10F470000E94B1F883E50E94B1F880E50E94B1F8DE
:10F4800080E10E94B1F8A3CF0E94E5F88638C8F267
:10F490000E94E5F80E949AF99ACF0E94E5F8803818
:10F4A00009F4AAC0813809F4A3C0823809F420C144
:10F4B000883909F48CC080E00E9479F988CF84E112
:10F4C0000E945CF90E949AF982CF85E00E945CF963
:10F4D0000E949AF97CCF0E94E5F8809306020E9470
:10F4E000E5F8809307020E949AF971CF0E94E5F82F
:10F4F000803309F470C083E00E945CF980E00E94D0
:10F5000079F965CF0E94E5F8809309030E94E5F838
:10F510008093080380910C038E7F80930C030E94DC
:10F52000E5F8853409F4FCC0809108039091090343
:10F53000892B89F000E010E00E94E5F8F801E85F0F
:10F54000FD4F80830F5F1F4F809108039091090347
:10F550000817190788F30E94E5F8803209F061CF97
:10F5600080910C0380FFEEC02091060230910702CB
:10F57000220F331F30930702209306028091080365
:10F5800090910903892BE1F000E010E0F801E85FB9
:10F59000FD4FC90160810E9425FC20910602309137
:10F5A00007022F5F3F4F30930702209306020F5F41
:10F5B0001F4F80910803909109030817190730F332
:10F5C00084E10E94B1F880E10E94B1F800CF83E0AD
:10F5D0000E9479F9FCCE0E94E5F80E94E5F8182F08
:10F5E0000E94E5F8112309F420C1113009F494C0F8
:10F5F00081E00E9479F9EBCE82E00E9479F9E7CEB2
:10F600000E94E5F8809309030E94E5F880930803BF
:10F61000209106023091070237FD8EC080910C03C5
:10F620008D7F80930C03220F331F309307022093AA
:10F6300006020E94E5F8853409F478C080910C0335
:10F640008E7F80930C030E94E5F8803209F0BFCED4
:10F6500084E10E94B1F88091080390910903892BFD
:10F6600009F442C000E010E0209106023091070248
:10F6700017C0F90184910E94B1F8209106023091DF
:10F6800007022F5F3F4F30930702209306020F5F60
:10F690001F4F80910803909109030817190720F55F
:10F6A00080910C0380FD28C081FFE3CFC901A0E059
:10F6B000B0E080509040AF4FBF4FABBFFC0187918F
:10F6C0000E94B1F8DACF0E94E5F8803209F0A9CEA5
:10F6D00084E10E94B1F88EE10E94B1F887EA0E94AD
:10F6E000B1F881E00E94B1F880E10E94B1F86FCEDC
:10F6F00080E10E9479F96BCEC9010E941DFC0E9435
:10F70000B1F820910602309107022F5F3F4F3093EE
:10F71000070220930602BBCF87EA0E9479F957CEF1
:10F7200080910C03816080930C03FECE80910C03CA
:10F73000816080930C0387CF80910C03826080935B
:10F740000C0371CF8091070287FD73C010920B03E9
:10F7500080910B038BBF8091060290910702880F66
:10F76000991F90930702809306028091080380FFFF
:10F7700009C08091080390910903019690930903B1
:10F7800080930803F894F999FECF1127E0910602BF
:10F79000F0910702C8E0D2E080910803909109033C
:10F7A000103091F40091570001700130D9F303E05B
:10F7B00000935700E8950091570001700130D9F38C
:10F7C00001E100935700E8950990199000915700C6
:10F7D00001700130D9F301E000935700E8951395CB
:10F7E000103898F011270091570001700130D9F3BB
:10F7F00005E000935700E895009157000170013033
:10F80000D9F301E100935700E8953296029709F089
:10F81000C7CF103011F00296E5CF112484E10E9489
:10F82000B1F880E10E94B1F8D2CD8EE10E9479F961
:10F83000CECD81E080930B038BCFF999FECF92BDA3
:10F8400081BDF89A992780B50895262FF999FECFA2
:10F850001FBA92BD81BD20BD0FB6F894FA9AF99AED
:0CF860000FBE01960895F894FFCF8000C1
:00000001FF
